S01600005350495F4D61737465725F4150502E7372656317
S11300000C942A000C9447000C9447000C9447006D
S11300100C9447000C9447000C9447000C94470040
S11300200C9447000C9447000C94E4020C94470091
S11300300C9447000C94D2020C9447000C94470093
S11300400C9447000C9447000C9447000C94470010
S11300500C94470011241FBECFE5D8E0DEBFCDBF0E
S113006011E0A0E6B0E0E2E3F6E002C005900D92F4
S1130070AA34B107D9F711E0AAE4B1E001C01D9296
S1130080AD34B107E1F70E945E010C9417030C94A0
S11300900000AB9A8FE19EE40197F1F700C00000E5
S11300A0AB988FE19EE40197F1F700C0000008953A
S11300B0CF93C82F8BB38F708BBB8BB39C2F907F48
S11300C0892B8BBBA9980E9449008BB38F708BBB83
S11300D08BB3C295C07FC82BCBBBA9980E944900A3
S11300E0CF910895A19AA29AA39AD49AD59AD69A0E
S11300F0D79AAA9883E30E9458008FE99FE001975A
S1130100F1F700C0000082E30E945800AFE9BFE0AD
S11301101197F1F700C0000088E20E9458008FE9AF
S11301209FE00197F1F700C0000081E00E945800B1
S11301308FE00E9458008FEF99EFA0E0815090402B
S1130140A040E1F700C000000895882319F4862F29
S1130150805802C0862F80540E945800089581E080
S11301600E9458000895CF93C82F8BB38F708BBB18
S11301708BB39C2F907F892B8BBBA99A0E9449003B
S11301808BB38F708BBB8BB3C295C07FC82BCBBB9B
S1130190A99A0E944900CF910895CF93DF93EC016F
S11301A08881882331F021960E94B30089918823A5
S11301B0D9F7DF91CF910895A09AA79A8B9A0895C1
S11301C06C9A689A699ABC9ABD9ABF9AC49A6E9AB4
S11301D00895C4988FB9779BFECFC49A08956C98FC
S11301E06E9ABE9A0895779BFECF8FB10895E199D8
S11301F0FECF9FBB8EBB6DBBE29AE19A0895E19955
S1130200FECF9FBB8EBBE09A8DB3089583B7886001
S113021083BF83B78F7B83BF88E98CBF789489B70A
S1130220826089BF83B7816083BF83B78D7F83BFBB
S113023083B7846083BF0895DC01CB01880F991FC5
S1130240AA1FBB1F880F991FAA1FBB1F9C01AD01CA
S1130250220F331F441F551F220F331F441F551FE6
S113026060E074E284EF90E00E94F5022150304097
S113027029B930BD86E880BD579A8AB188618AB9A8
S113028008955D9BFECF8CB9089560E875E280E027
S113029090E00E941C0108950E9441010895CF93AB
S11302A0DF93EC018881882331F021960E944C0170
S11302B089918823D9F7DF91CF910895CF93DF9364
S11302C000D00F92CDB7DEB719828EE48B83789479
S11302D00E94E0000E9472000E94DC000E9445011E
S11302E00E94060185E090E00E94FF008F3F99F58F
S11302F00E94AF0080E690E00E94CD0080EC60E0B8
S11303000E94A50001E411E018C080914C018130E5
S1130310A1F410924C01E98160914B01F0E0EE0FE1
S1130320FF1FE00FF11F808191810E94F7008AE294
S11303300E94B30089818F5F89838981843028F387
S113034085E090E06EEE0E94F70086E090E060E0C9
S11303500E94F70096C00E94AF0081E790E00E94DF
S1130360CD0080EC60E00E94A50000E00F2EF3E8D1
S1130370EF2EF0E0FF2EF02D0F2EF1E7CF2EF0E060
S1130380DF2EF02D0F2EF1E4AF2EF1E0BF2EF02D75
S11303900F2EF9E88F2EF0E09F2EF02D0F2EF4E9AA
S11303A06F2EF0E07F2EF02D68C086E090E00E9472
S11303B0FF008330F9F4939A0E94AF00C7010E94B2
S11303C0CD008FEF93E2A4EF81509040A040E1F77D
S11303D000C00000198286E090E060E00E94F7000F
S11303E093980E94AF00C6010E94CD0080EC60E0AB
S11303F00E94A50080914C018130B9F410924C0107
S1130400898190E0880F991F8A0D9B1DDC018D91D5
S11304109C910E94FF0090914B0189130F5F8AE227
S11304200E94B30089818F5F89838981843029F593
S1130430002319F10E94AF00C4010E94CD008FEF88
S113044093EDA0E381509040A040E1F700C000008C
S11304500E94AF00C3010E94CD0080EC60E00E94C6
S1130460A50086E090E00E94FF00682F6F5F86E0A1
S113047090E00E94F700198200E08981843008F43A
S113048094CF0E94AF0082EA90E00E94CD008FEFEB
S113049093EDA0E381509040A040E1F700C000003C
S11304A088EA90E00E944F0186EB90E00E944F01A1
S11304B080EC90E00E944F018AEC90E00E944F0192
S11304C00EEE10E00F2EFFEFEF2EF0E0FF2EF02DDA
S11304D00F2EFAE1CF2EF1E0DF2EF02D0F2EFFE2EA
S11304E06F2EF1E07F2EF02D0F2EF1E3AF2EF1E011
S11304F0BF2EF02D0F2EFDED8F2EF0E09F2EF02D50
S113050080914C01813009F04AC010924A01109246
S11305104C0180914B018A838A810E944C018A811B
S1130520813359F0823381F0803391F5C4010E9404
S11305304F018A810E94E900E3CFC8010E944F0164
S11305408A810E94E900DCCFC7010E944F018A81A1
S11305500E94E900C6010E944F01198212C08091D5
S11305604C01813071F410924C0180914B018A83CB
S11305708A810E944C018A810E94E90089818F5FEF
S113058089838981823058F3862D0E94E900B8CF8F
S1130590C5010E944F018A810E94E900B1CF809178
S11305A04A01AECF1F920F920FB60F9211248F9370
S11305B081E080934C018CB180934B018F910F901B
S11305C00FBE0F901F9018951F920F920FB60F92A7
S11305D011248F9380914A018F5F80934A018F91F8
S11305E00F900FBE0F901F901895A1E21A2EAA1B10
S11305F0BB1BFD010DC0AA1FBB1FEE1FFF1FA217CF
S1130600B307E407F50720F0A21BB30BE40BF50BCB
S1130610661F771F881F991F1A9469F76095709554
S1130620809590959B01AC01BD01CF010895F8948C
S1050630FFCFF6
S1130632456E746572204E657720506173733A205B
S113064200456E74657220796F7572205061737300
S11306523A2000424C4F434B004572726F72205055
S11306626173730052656E74657220706173733ABC
S11306722000454E5445520057656C636F6D6520EA
S1130682536972200D00303A526F6F6D30200D00A5
S1130692313A526F6F6D31200D00323A4169722046
S11306A2436F6E646974696F6E73200D00203A2083
S11306B2546F67676C6520526F6D6D300D00203A80
S11306C220546F67676C6520526F6D6D310D002089
S11306D23A204F4E2F4F46462041697220636F6E77
S11306E2646974696F6E65720D00456E746572207B
S11306F254656D7028322D6469676974293A000D56
S113070200203A2077726F6E6720656E7472790DDD
S10D071200010002000300040000CF
S9030000FC
